:020000040800F2
:10000000D0090020B1B1000841B2000845B2000893
:1000100049B200084DB2000851B2000800000000CB
:1000200000000000000000000000000055B20008C1
:1000300059B20008000000005DB2000861B200087B
:1000400065B2000869B200086DB2000871B200081C
:1000500075B2000879B200087DB2000881B20008CC
:1000600085B2000889B200088DB200081F8500081B
:1000700029850008338500083D850008478500086C
:10008000518500085B85000891B2000895B2000810
:1000900099B200089DB20008A1B20008A5B20008FC
:1000A000A9B20008ADB20008B1B20008B5B20008AC
:1000B000B9B20008BDB20008C1B20008C5B200085C
:1000C000C9B20008CDB20008D1B20008D5B200080C
:1000D000D9B20008DDB20008D5260008E1B2000858
:1000E00029310008E5B20008E9B20008EDB20008C5
:1000F000F1B20008F5B20008F9B200086585000801
:10010000FDB2000801B3000805B3000809B30008F8
:10011000711E0008951B00080DB300087537000814
:100120006F85000879850008838500088D850008A3
:100130009785000811B3000815B3000819B300082B
:100140001DB3000821B3000825B3000829B3000837
:10015000A1850008AB850008B58500082DB300080F
:1001600031B3000835B3000839B300083DB30008C7
:1001700041B3000845B3000849B300084DB3000877
:1001800051B3000855B3000840B2002809D5090151
:10019000DFF8B42A40B210F00F00104400F8041C3D
:1001A00004E00901DFF8A42A40B211547047BFF3FC
:1001B0004F8FDFF89C0A016811F4E061DFF8940AC0
:1001C0000143DFF88C0A0160BFF34F8F00BFFDE7EA
:1001D00010B504F02DFE642003F098FF02F039FC06
:1001E00002F048FF01F000FB02F07AFC02F0C8FDCB
:1001F00002F020FD03F010F803F014FA03F03EF9CA
:10020000DFF8540ADFF8542ADFF8543AC0E9002333
:10021000DFF8500ADFF8502ADFF8503AC0E900232F
:10022000DFF8340ADFF8482ADFF8483AC0E9022349
:10023000DFF8300ADFF8402ADFF8403AC0E902234D
:10024000DFF8140ADFF8382ADFF8143AC0E904238B
:10025000DFF8100ADFF82C2ADFF8203AC0E904237F
:10026000DFF8F409DFF8202ADFF8203AC0E9062396
:10027000DFF8F009DFF8182ADFF8003AC0E90623B2
:10028000DFF8100A006830F48070DFF8081A0860A0
:10029000DFF8000A006830F40070DFF8F819086031
:1002A000DFF8F009006830F00200DFF8E8190860B4
:1002B000DFF8E009006850F00400DFF8D8190860A2
:1002C000DFF8D009006850F00800DFF8C8190860AE
:1002D000DFF8C009006850F01000DFF8B8190860B6
:1002E000DFF8B009006850F02000DFF8A8190860B6
:1002F000DFF8A009006850F04000DFF898190860A6
:10030000DFF89809006850F08000DFF89019086065
:10031000DFF88809006850F48070DFF88019086001
:10032000DFF87809006850F00700DFF870190860FE
:10033000DFF86809006830F00200DFF86019086033
:10034000DFF85809006850F00100DFF85019086024
:10035000F9E00020DFF848190860DFF83809006884
:1003600050F04000DFF82C190860DFF82809006819
:1003700050F00800DFF81C190860DFF81809006861
:1003800030F48070DFF80C190860DFF8100900689D
:1003900050F00400DFF8041908604FF47A70DFF8B9
:1003A00004190860DFF8FC080068DFF8FC18086032
:1003B0000120DFF8F8180860DFF8F008006801286D
:1003C000FAD0DFF8D008006830F01000DFF8C41869
:1003D0000860DFF8C008006850F00200DFF8B418C9
:1003E00008600020DFF8C81808604FF4C870DFF814
:1003F000C4180860DFF8BC080068DFF89C180860C3
:10040000DFF8B0080068DFF8B0180860DFF8A80867
:100410000068DFF8A8180860DFF87C080068DFF8DB
:10042000A01808600520DFF884180860DFF87C0851
:1004300000680528FAD00120DFF870180860DFF89E
:100440006C0800680128FAD00120DFF878180860ED
:1004500001F06AF80120DFF854180860DFF84C0852
:1004600000680128FAD00320DFF840180860DFF8A0
:100470003C0800680328FAD00120DFF83018086033
:10048000DFF8280800680128FAD00420DFF81C18DB
:100490000860DFF8180800680428FAD00120DFF8A7
:1004A0000C180860DFF8040800680128FAD0012061
:1004B000DFF81418086001F0E9F80120DFF8EC1704
:1004C0000860DFF8E80700680128FAD00620DFF8A6
:1004D000DC170860DFF8D40700680628FAD0DFF8D8
:1004E000B407006850F48070DFF8A8170860002097
:1004F000DFF8681908600120DFF8A4170860DFF84A
:10050000CC07DFF8CC1791ED000B80ED000B01203C
:10051000DFF89C170860DFF87C07006830F04000C7
:10052000DFF870170860DFF86C07006830F008002B
:10053000DFF860170860DFF86407006830F0040037
:10054000DFF85817086003F093FEDFF864070068CF
:10055000012840F0B680DFF87C07006801F0F6F96A
:10056000DFF8740780ED000BDFF870070468DFF830
:100570007007006804F052FDDFF85C27D2E9002321
:1005800004F062FD04F032FE241ADFF85007046024
:10059000DFF850070468DFF84807006804F03EFD04
:1005A000DFF83427D2E9002304F04EFD04F01EFEEC
:1005B0000419DFF830070460DFF820070068C82856
:1005C00004DBC820DFF8141708600AE0DFF80C0726
:1005D000006810F1C70F04DA7FF0C700DFF8FC16DF
:1005E0000860DFF800070068C82804DBC820DFF8CF
:1005F000F41608600AE0DFF8EC06006810F1C70F97
:1006000004DA7FF0C700DFF8DC160860DFF8880640
:100610000168DFF8C80600684118DFF87C06016051
:10062000DFF894060168DFF8BC0600684118DFF8BF
:1006300088060160DFF86006006840F29241884257
:1006400005DB40F29240DFF8501608600BE0DFF85F
:100650004806006840F20331884204DA40F2023072
:10066000DFF834160860DFF85006006840F2DC510D
:10067000884205DB40F2DC50DFF83C1608600BE0F6
:10068000DFF83406006840F28531884204DA4FF41E
:100690006170DFF824160860002000E0401CDFF8DD
:1006A000481609688842F9DBDFF8EC050068DFF8D6
:1006B00010160860DFF800060068DFF80016086012
:1006C00016E04FF41670DFF8F0150860DFF8E80563
:1006D0000068DFF8C4150860DFF8BC050068DFF8C3
:1006E000E0150860DFF8D0050068DFF8D015086075
:1006F000DFF8F805006800280CD125E07A2002F028
:10070000E1FB722002F0DEFB6F2002F0DBFB0A202F
:1007100002F0D8FBDFF8D805D0E90001DFF8D425D6
:10072000DFF8D43504F080FDE8D9DFF8C405D0E95E
:1007300000015FF09932DFF8C43504F08DFDDDD3A0
:100740000020DFF8A8150860DFF8B405006801286C
:100750002FD1DFF8B005D0E90001DFF8AC25D2E9F0
:10076000002304F091FDDFF8C428C2E90001DFF89E
:100770009C05D0E90023DFF8B818DFF8940504F0F1
:10078000A7FEDFF88405D0E90023DFF8A418DFF81E
:10079000A40804F09DFEDFF89408D0E90023DFF8F8
:1007A0009018DFF8940804F093FE0020DFF850154D
:1007B0000860DFF87808D0E90023DFF87418DFF864
:1007C000780804F085FEDFF874080068002805D07A
:1007D00000F024FD0020DFF8D8140860DFF860087E
:1007E0000068002805D000F083FD0020DFF8C01469
:1007F0000860DFF850080068002805D000F0E0FD30
:100800000020DFF8AC140860DFF83C08006800281E
:1008100005D000F031FE0020DFF894140860DFF806
:100820000C090068012840F0B980DFF83006006844
:10083000012805D1DFF824060068022800F0AE8008
:10084000DFF8E807D0E900010122DFF8003804F002
:1008500003FD10D200F05EFADFF88C0A0068012870
:1008600040F09C800020DFF8C41808600020DFF80A
:10087000781A086092E0DFF8B407D0E9000101229D
:10088000DFF8C83704F0D0FC1AD8DFF8A007D0E9A9
:1008900000010122DFF8983804F0DEFC10D2DFF806
:1008A000480A0068022802DA00F034FA76E00020F4
:1008B000DFF8781808600020DFF82C1A08606DE077
:1008C000DFF86807D0E900010122DFF8643804F09E
:1008D000ABFC1AD8DFF85407D0E900010122DFF899
:1008E000543804F0B9FC10D2DFF8FC090068032882
:1008F00002DA00F00FFA51E00020DFF8301808604B
:100900000020DFF8E419086048E0DFF82007D0E9AC
:1009100000010122DFF81C3804F086FC1AD8DFF849
:100920000C07D0E900010122DFF80C3804F094FC38
:1009300010D2DFF8B4090068042802DA00F0EAF9FE
:100940002CE00020DFF8E41708600020DFF8981999
:10095000086023E0DFF8D406D0E900010122DFF8C7
:10096000D83704F061FC19D8DFF8C006D0E90001DF
:100970000122DFF8A43804F06FFC0FD2DFF8680919
:100980000068052802DA00F0C5F907E00020DFF86A
:100990009C1708600020DFF850190860DFF8BC04DD
:1009A000006801283FF4D5ACDFF8B00400680228E5
:1009B0007FF4C9AD0020DFF8E8120860B548006890
:1009C00050F04000B3490860B248006850F0080099
:1009D000B0490860AF48006830F40070AD49086065
:1009E000DFF8B802006850F00400DFF8B0120860C9
:1009F0004FF47A70DFF8AC120860DFF8A8020068E4
:100A0000DFF8A41208600120DFF8A0120860DFF808
:100A10009C0200680128FAD09E48006830F010005F
:100A20009C4908609B48006850F0020099490860A2
:100A30000020DFF87C1208604FF4C870DFF87412F1
:100A40000860DFF87002006893490860DFF864020C
:100A50000068DFF864120860DFF85C020068DFF805
:100A60005C1208608C480068DFF8541208600520AA
:100A7000DFF838120860DFF8340200680528FAD081
:100A80000120DFF828120860DFF820020068012842
:100A9000FAD00120DFF85418086000F09DFD012015
:100AA000DFF808120860DFF8040200680128FAD0B5
:100AB0000320DFF8F8110860DFF8F0010068032870
:100AC000FAD00120DFF8E4110860DFF8E0010068E7
:100AD0000128FAD00420DFF8D4110860DFF8CC0137
:100AE00000680428FAD00120DFF8C0110860DFF8A0
:100AF000BC0100680128FAD00120DFF8C0180860A6
:100B000000F01AFE0120DFF8A4110860DFF89C0154
:100B100000680128FAD00620DFF890110860DFF89D
:100B20008C0100680628FAD05A48006850F400701A
:100B3000584908600020DFF8241308600120DFF81E
:100B400060110860DFF88401DFF8841191ED000B7B
:100B500080ED000B0120DFF8581108604D48006857
:100B600030F040004B4908604A48006830F0080007
:100B700048490860DFF82401006830F00400DFF81D
:100B80001C110860DFE4DFF8EC08006800281CD1C5
:100B90004048006850F480703E4908603D48006855
:100BA00030F400703B490860DFF8D80A006850F460
:100BB0000060DFF8D01A0860DFF8C80A006830F477
:100BC0008060DFF8C01A08603DE0DFF8A808006820
:100BD00003281CD12F48006830F480702D4908602C
:100BE0002C48006850F400702A490860DFF8940A25
:100BF000006830F40060DFF88C1A0860DFF8840ABF
:100C0000006850F48060DFF87C1A08601BE021481F
:100C1000006830F480701F4908601E48006830F496
:100C200000701C490860DFF85C0A006830F400605E
:100C3000DFF8501A0860DFF84C0A006830F4806072
:100C4000DFF8401A0860704718ED00E000E400E0AB
:100C50000CED00E00400FA0548030020151F9F90EA
:100C60009DAB42406803002049F4328AE5AE5F4004
:100C70003EB2B96A9EAB4240490ED8D5E4AE5F4061
:100C800097FDBAD3DE718A8E2101A3CB9BAB424084
:100C900038A3E6AB141802403000002014100240C4
:100CA000B0050020A80500203400014024050020E4
:100CB000480500203805002034000020380400409A
:100CC000340400406C05002064050020F804002076
:100CD000000500207405002090040020300500204D
:100CE00040000020340500203C00002010050020BA
:100CF000480400209A9999999999B93F9999B9BF4F
:100D0000A4050020E0040020D8040020D004002026
:100D1000F003002080B5DFF81404006801283DD1FD
:100D2000DFF8C00A0068002838D1DFF848070068FB
:100D3000002804D0DFF83C07006803282ED1FFF715
:100D400022FFDFF8E007006830F00400DFF8D41776
:100D50000860DFF83409006850F01000DFF8281947
:100D60000860DFF82409006830F00200DFF8181985
:100D70000860DFF81409006830F04000DFF8081957
:100D80000860DFF80409006830F00800DFF8F818A0
:100D900008600120DFF84C1A086045E1DFF88C0399
:100DA000006801285CD1DFF83C0A0068002857D1B0
:100DB000DFF8C0060068012852D1FFF7E4FE0020EA
:100DC000264908600020DFF8AC1D08604FF416705B
:100DD000DFF8301B08604FF41670DFF82C1B08603A
:100DE000DFF8280B00680128FAD00020DFF8E417AC
:100DF000086001209149086000F010FA0120DFF836
:100E00000C1B0860DFF8040B00680128FAD00020F2
:100E1000DFF8C01708600220DFF8F01A0860DFF87A
:100E2000EC0A00680228FAD00020DFF8A817086052
:100E30000120DFF8D81A0860DFF8D00A006801281E
:100E4000FAD00220DFF82C1608600020DFF88417A3
:100E50000860002001490860E6E000BFB8050020F6
:100E6000B2480068012835D1DFF80806006802287A
:100E700030D1DFF87009006800282BD1FFF783FE1E
:100E80000020DFF88C1A08600020DFF8E81C0860FA
:100E90004FF41670DFF86C1A08604FF41670DFF824
:100EA000681A08600120DFF86C1A086000F0D0F8BA
:100EB0000120DFF8581A0860DFF8500A006801289E
:100EC000FAD00020DFF8481A08600320DFF8A415E4
:100ED0000860A9E095480068012863D1DFF894050F
:100EE000006804285ED1DFF8FC080068002859D1AA
:100EF000FFF749FE0020DFF8181A0860DFF88807BE
:100F0000006830F40070DFF880170860DFF87807B9
:100F1000006830F48070DFF8701708600020DFF898
:100F2000541C08604FF41670DFF8D81908604FF4AD
:100F30001670DFF8D4190860DFF8D00900680128BE
:100F4000FAD001203E49086000F0D2F90120DFF814
:100F5000BC190860DFF8B40900680128FAD0002045
:100F6000DFF8701608600220DFF8A0190860DFF8CB
:100F70009C0900680228FAD00120DFF89019086067
:100F8000DFF8880900680128FAD00020DFF844164D
:100F900008600020DFF8781908600520DFF8D41415
:100FA000086041E06148006801283DD1DFF8C404D1
:100FB0000068052838D1DFF82C080068002833D1F4
:100FC000FFF7E1FD0020DFF8481908600020DFF896
:100FD000A41B08604FF41670DFF8281908604FF45E
:100FE0001670DFF8241908600120DFF82C1908605A
:100FF00000F0A4F80120DFF814190860DFF80C09EC
:1010000000680128FAD00020DFF8C8150860002029
:10101000DFF8FC1808600020DFF858140860B248B8
:101020000068401CB049086001BD0000E8040020D1
:10103000CCB100080404002018040020540500204E
:10104000580500205C0500206005002000000440D9
:1010500080B50020DFF81C1B0860DFF8B8080068C6
:10106000012861D14FF41670DFF80C1B0860DFF81F
:10107000080B0068DFF8041B0860DFF80C06006846
:1010800030F04000DFF800160860DFF8FC0500686B
:1010900030F00800DFF8F01508600FE0DFF8E80531
:1010A000006850F01000DFF8E0150860DFF8D805A0
:1010B000006850F00200DFF8D0150860DFF8C00AC1
:1010C000D0E900010122DFF8BC3A04F0C5F8E5D30D
:1010D000DFF8B405006850F01000DFF8AC150860C8
:1010E000DFF8A405006830F00200DFF89C15086006
:1010F000DFF89405006850F04000DFF88C150860B8
:10110000DFF88405006850F00800DFF87C150860FF
:101110000120DFF8741A08600020DFF8F817086073
:101120000120DFF8501A086001BD000014050020FE
:101130000000124000001A400000214080B500204D
:10114000DFF8301A0860DFF8D0070068012861D1A5
:10115000DFF83405006830F04000DFF82C15086037
:10116000DFF82405006830F00800DFF81C1508607F
:101170004FF41670DFF8001A0860DFF8FC09006809
:10118000DFF8F81908600FE0DFF8FC04006830F0C1
:101190001000DFF8F4140860DFF8EC04006830F0A9
:1011A0000200DFF8E4140860DFF8D409D0E9000198
:1011B0000022DFF8D83904F037F8E5D9DFF8C804A1
:1011C000006850F01000DFF8C0140860DFF8B804C1
:1011D000006830F00200DFF8B0140860DFF8A804FF
:1011E000006850F04000DFF8A0140860DFF89804B1
:1011F000006850F00800DFF8901408600120DFF864
:10120000881908600020DFF8101708600120DFF857
:101210006419086001BD00000000254080B5002071
:10122000DFF850190860DFF8AC0B0068012859D1CD
:101230004FF41670DFF840190860DFF83C090068C9
:10124000DFF838190860DFF84004006830F040002B
:10125000DFF834140860DFF83004006830F008006C
:10126000DFF8241408600FE0DFF82409006850F06C
:101270001000DFF81C190860DFF81409006850F04E
:101280000200DFF80C190860DFF8F408D0E900016B
:101290000122DFF8443B03F0DFFFE5D3DFF8F0087D
:1012A000006850F01000DFF8E8180860DFF8E00888
:1012B000006830F00200DFF8D8180860DFF8D008C6
:1012C000006850F04000DFF8C8180860DFF8C00878
:1012D000006850F00800DFF8B81808600020DFF858
:1012E000F41A086001BD0000BC0500207005002054
:1012F00080B50020DFF87C180860DFF8E00A00689D
:10130000012859D1DFF88808006830F04000DFF884
:1013100080180860DFF87808006830F00800DFF80F
:10132000701808604FF41670DFF84C180860DFF88A
:1013300048080068DFF8441808600FE0DFF850083C
:10134000006830F01000DFF848180860DFF8400847
:10135000006830F00200DFF838180860DFF8200875
:10136000D0E900010022DFF8783A03F05DFFE5D90B
:10137000DFF81C08006850F01000DFF8141808604F
:10138000DFF80C08006830F00200DFF8041808608D
:10139000DFF8FC07006850F04000DFF8F417086041
:1013A000DFF8EC07006850F00800DFF8E417086089
:1013B0000020DFF8281A086001BD00006805002041
:1013C00080B50020DFF8AC170860DFF8180A006865
:1013D00001284DD1DFF8B807006830F04000DFF891
:1013E000B0170860DFF8A807006830F00800DFF8E1
:1013F000A01708604FF41670DFF87C170860DFF85C
:1014000078070068DFF8741708600FE0DFF88007DE
:10141000006850F01000DFF878170860DFF87007F8
:10142000006850F00200DFF868170860DFF8500726
:10143000D0E900010122DFF8B03903F00DFFE5D358
:10144000DFF84C07006850F04000DFF844170860F0
:10145000DFF83C07006850F00800DFF83417086038
:101460000020DFF8801908600120DFF80817086005
:1014700001BD0000B405002080B50020DFF8F4169F
:101480000860DFF868090068012849D1DFF8000723
:10149000006830F04000DFF8F8160860DFF8F0066A
:1014A000006830F00800DFF8E81608604FF41670A6
:1014B000DFF8C4160860DFF8C0060068DFF8BC1665
:1014C00008600FE0DFF8C806006830F01000DFF8B1
:1014D000C0160860DFF8B806006830F00200DFF8D8
:1014E000B0160860DFF89806D0E900010022DFF8A6
:1014F000003903F099FEE5D9DFF89406006850F052
:101500004000DFF88C160860DFF88406006850F0B1
:101510000800DFF87C1608600020DFF8D0180860AB
:1015200001BD00001410024080B50020DFF8441611
:101530000860DFF8C0080068012849D1DFF85006CC
:10154000006830F04000DFF848160860DFF8400619
:10155000006830F00800DFF8381608604FF41670A5
:10156000DFF814160860DFF810060068DFF80C16C4
:1015700008600FE0DFF81806006830F01000DFF8B0
:1015800010160860DFF80806006830F00200DFF887
:1015900000160860DFF8E805D0E900010022DFF856
:1015A000583803F041FEE5D9DFF8E405006850F053
:1015B0004000DFF8DC150860DFF8D405006850F063
:1015C0000800DFF8CC1508600020DFF82818086054
:1015D00001BD00002005002080B50020DFF8941533
:1015E0000860DFF818080068012849D1DFF8A00575
:1015F000006830F04000DFF898150860DFF89005CB
:10160000006830F00800DFF8881508604FF41670A5
:10161000DFF864150860DFF860050068DFF85C1526
:1016200008600FE0DFF86805006850F01000DFF890
:1016300060150860DFF85805006850F00200DFF818
:1016400050150860DFF83805D0E900010122DFF805
:10165000B03703F001FEE5D3DFF83405006850F041
:101660004000DFF82C150860DFF82405006850F012
:101670000800DFF81C1508600020DFF880170860FC
:1016800001BD0000003C01401418024080B500205C
:10169000DFF8E0140860DFF86C07006801284AD121
:1016A000DFF8EC04006830F04000DFF8E414086074
:1016B000DFF8DC04006830F00800DFF8D4140860BC
:1016C0004FF41670DFF8B0140860DFF8AC0400685F
:1016D000DFF8A81408600FE0DFF8B404006850F0E9
:1016E0001000DFF8AC140860DFF8A404006850F0C4
:1016F0000200DFF89C140860DFF88404D0E90001E0
:101700005FF0FF32DFF8003703F0A6FDE4D3DFF827
:101710008004006850F04000DFF874140860DFF8BF
:101720007004006850F00800DFF8641408600020BE
:10173000DFF8D016086001BD80B50020DFF8341452
:101740000860DFF8C8060068012849D1DFF84004C6
:10175000006830F04000DFF838140860DFF830042B
:10176000006830F00800DFF8281408604FF41670A5
:10177000DFF804140860DFF800040068DFF8FC13E9
:1017800008600FE0DFF80804006830F01000DFF8B0
:1017900000140860DFF8F803006830F00200DFF89A
:1017A000F0130860DFF8D803D0E900010022DFF869
:1017B000603603F039FDE5D9DFF8D403006850F056
:1017C0004000DFF8CC130860DFF8C403006850F075
:1017D0000800DFF8BC1308600020DFF8301608604E
:1017E00001BD0000B005002080B5DFF828060068C4
:1017F00050F00100DFF81C160860DFF81C060068D6
:1018000050F40020DFF810160860DFF810060068BA
:1018100050F44020DFF804160860DFF80406006882
:1018200050F07000DFF8F8150860DFF8EC0500688C
:1018300050F40010DFF8E0150860DFF8E0050068FC
:1018400050F44010DFF8D4150860DFF8D4050068C4
:1018500050F4E060DFF8C8150860DFF8C8050068DC
:1018600050F01000DFF8BC1508605FF4E13001F0C3
:1018700048FBDFF8B40501884EF6FF700140DFF841
:10188000A8050180DFF8A00501884FF6FF30014070
:10189000DFF894050180DFF89005008850F004001F
:1018A000DFF884150880DFF88005008850F0080014
:1018B000DFF874150880DFF8740501884CF6FF70B6
:1018C0000140DFF8680501800020DFF8641508801A
:1018D000DFF85405008850F02000DFF84C15088030
:1018E000DFF85005006850F02000DFF84815086068
:1018F000DFF83405008850F40050DFF82C1508801C
:1019000001BD0000340400403804004024050020DC
:10191000B8050020500500204C05002010B4019CA3
:10192000401AE41A6043511A90FBF1F01B1818009A
:1019300010BC704710B4019C401AE41A6043511A5D
:1019400090FBF1F01B18180010BC70471CB5040088
:101950008B48D0E900010022DFF8DC3403F064FC9E
:101960000AD98748D0E900015FF0FF32DFF89834E8
:1019700003F072FC80F0C880200003F04FFB804A27
:10198000D2E9002303F0C4FDDFF8B024C2E900016E
:10199000DFF8A804D0E90023DFF8A404D0E90001AF
:1019A00003F052FBDFF89C24C2E90001DFF88C044D
:1019B000D0E90023DFF89004D0E9000103F044FBF4
:1019C000DFF88824C2E90001DFF88004D0E90023B1
:1019D000DFF87C04D0E9000103F036FBDFF8742463
:1019E000D2E9002303F006FEDFF86824C2E9000113
:1019F000DFF86404624991ED000B80ED000B604854
:101A0000D0E90001DFF85024D2E9002303F080FD83
:101A1000DFF84824C2E90001DFF84004D0E9000102
:101A2000DFF82424D2E9002303F02EFCDFF8302471
:101A3000D2E9002393F0004303F006FBDFF82424EF
:101A4000C2E900014E48D0E900015FF0FF32DFF843
:101A5000B83303F001FC1DD2DFF80C040068401D10
:101A6000DFF804140860DFF800040068C92803DB0D
:101A7000C820DFF8F41308604FF6E07001900020F2
:101A80000090DFF8E8332B224FF49671D22004F057
:101A900082F927E03A48D0E900010022DFF89833C4
:101AA00003F0C2FB1ED8DFF8C0030068401FDFF858
:101AB000B8130860DFF8B003006810F1C80F04DA4B
:101AC0007FF0C700DFF8A01308604FF6E0700190C8
:101AD00000200090DFF894332D224FF49671D2202D
:101AE00004F059F9D748D0E90023DA48D0E90001D9
:101AF00003F080FDDB4AD2E9002303F07BFDDFF831
:101B0000C42BC2E9000130E0DFF8B80B002200234B
:101B1000C0E900230020DFF8781B0860DFF8700BB5
:101B20000068DFF8701B086040F2B630DFF8681B11
:101B30000860DFF8640B0168CB480068091A0F4899
:101B40000160DFF8540B0168C7480068411811F5BF
:101B50008C710948016009480068DFF8401B086083
:101B600005480068DFF8381B0860DFF8580B90ED77
:101B7000000B13BD48050020340000203000002079
:101B8000480400200020664010050020002066C0A8
:101B90001418024010B5DFF80C0B0088800640F1E5
:101BA0001481DFF8040B0088C0B2202824D1DFF8AC
:101BB000181B096801291FD12C21DFF8F02ADFF852
:101BC000F03A1B68D154DFF8E81A0968491CDFF8BD
:101BD000E02A1160DFF8D41ADFF8D42A126888549A
:101BE000DFF8CC0A0068401CDFF8C41A0860022045
:101BF000DFF8D41A0860E8E0C0B2202818D1DFF876
:101C0000C81A0968022913D1DFF8A41A0968B4298F
:101C100080F2DB80DFF8941ADFF8942A1268885487
:101C2000DFF88C0A0068401CDFF8841A0860CCE0FA
:101C3000C0B2212811D10020002004E00021DFF8EB
:101C40006C2A1154401CDFF8681A09688842F5DBD9
:101C50000020DFF85C1A0860B7E0C0B20D280ED192
:101C60000020DFF8481ADFF8482A12688854DFF8A5
:101C7000400A0068401CDFF8381A0860A5E0C0B2CE
:101C80000A2879D10020DFF8241ADFF8242A126804
:101C90008854DFF81C0A0068401CDFF8141A08603A
:101CA0002C20DFF8081ADFF8082A12688854DFF8B9
:101CB000000A0068401CDFF8F81908600222DFF80B
:101CC000EC1942A000F0A4FE00281FD140A1DFF8CB
:101CD000DC0904F0CDF8DFF8DC190860DFF8D4097E
:101CE0000068002812D00024102CF7DADFF8C409AD
:101CF0000068DFF8C41941F8240035A1002004F081
:101D0000B7F8DFF8B0190860641CEDE7DFF8A80940
:101D1000406900782D2804D12020DFF89C194969FA
:101D20000870DFF89409406904F0C9F8DFF88C09FD
:101D300080ED000BDFF880094069007820280AD187
:101D4000DFF87C09DFF87419D1E9002393F0004330
:101D5000C0E9002307E0DFF86809DFF8601991EDBA
:101D6000000B80ED000B0120DFF85C1908600020FB
:101D7000DFF83C19086028E0DFF83019DFF8302977
:101D80001268114411F8011C20290DD12C21DFF813
:101D90001C29DFF81C391B68D154DFF814190968B5
:101DA000491CDFF80C291160DFF80019DFF8002961
:101DB00012688854DFF8F8080068401CDFF8F01853
:101DC00008600120DFF80019086010BD2C20000019
:101DD0002C0000005405002000C05540580500208C
:101DE000000056C05C0500200080454060050020D2
:101DF000008045C06C05002000003CC0700500203C
:101E000000003C4064050020FFFFEFBF6805002094
:101E10000000F0BF303802400000024008000240DD
:101E200024000240443802400C10014010100140D0
:101E30001410014004E100E00000F03F50040020D5
:101E4000000000205804002018000020700400202A
:101E5000080000206004002088040020780400208E
:101E600010000020680400204405002044000020E9
:101E700080B5DFF8800B0088800640F10884DFF829
:101E8000780B0088DFF8381C0870DFF8340C007815
:101E9000312822D1DFF82C0CD0E90023DFF85C0BCD
:101EA000DFF85C1B03F0A6FBDFF8182CC2E9000189
:101EB000DFF8500B006830F48070DFF8481B0860D2
:101EC000DFF8400B006830F40070DFF8381B086062
:101ED0000120DFF8341B0860A0E3DFF8E40B007892
:101EE000322822D1DFF8DC0BD0E90023DFF80C0B1D
:101EF000DFF8181B03F07EFBDFF8C82BC2E90001F6
:101F0000DFF8000B006850F48070DFF8F81A086002
:101F1000DFF8F00A006850F40070DFF8E81A086093
:101F20000020DFF8E41A086078E3DFF8940B00780B
:101F3000332810D1DFF8900B006850F48040DFF8B0
:101F4000881B0860DFF8800B006850F40040DFF861
:101F5000781B086062E3DFF8680B0078342810D142
:101F6000DFF8640B006830F48040DFF85C1B086029
:101F7000DFF8540B006830F40040DFF84C1B0860B9
:101F80004CE3DFF83C0B0078352804D10120DFF862
:101F9000781A086042E3DFF8280B007836280AD167
:101FA0000020DFF8641A0860DFF8200B002200230D
:101FB000C0E9002332E3DFF8080B0078372804D1AA
:101FC0000120DFF80C1B086028E3DFF8F40A007832
:101FD00038280CD10020DFF8F81A08600020DFF85C
:101FE000F41A08600020DFF8F01A086016E3DFF842
:101FF000D00A00784F2804D10120DFF8E01A0860E9
:102000000CE3DFF8BC0A007854284BD10020DFF83D
:10201000CC1A08604FF41670DFF87C160860DFF801
:1020200078060068DFF8D41B0860DFF86C060068EB
:10203000DFF8CC1B0860DFF8C80B0068DFF860161B
:102040000860DFF8B80B0068DFF8501608609FEDF5
:10205000C60BDFF8B00B80ED000BDFF8AC0B80EDAA
:10206000000BDFF8A80B80ED000BDFF8580680EDC1
:10207000000BDFF89C0B80ED000BDFF8980B80ED78
:10208000000BDFF8940B80ED000BDFF8900B80ED78
:10209000000B0020DFF8881B08600020DFF8841B9D
:1020A0000860BBE2DFF8180A0078732802D1FEF757
:1020B0007EF8B3E2DFF8080A00785A285BD10120E5
:1020C000DFF8641B0860DFF83C09006850F010007E
:1020D000DFF830190860DFF82C09006830F00200E2
:1020E000DFF820190860DFF81C09006830F02000D4
:1020F000DFF810190860DFF80C09006830F0040000
:10210000DFF800190860DFF8FC08006850F04000B4
:10211000DFF8F0180860DFF8EC08006850F00800FD
:10212000DFF8E0180860DFF8040B006840084000A2
:10213000DFF8F81A0860DFF8F40A006830F00400ED
:10214000DFF8E81A08604FF47A70DFF8E41A0860E4
:10215000DFF8DC0A0068DFF8201C08600120DFF8E7
:102160007C1908600120DFF8141C08600120DFF8EA
:102170006019086052E2DFF848090078412808D168
:10218000DFF88008006830F01000DFF87818086089
:1021900044E2DFF82C090078422808D1DFF864080F
:1021A000006850F01000DFF85C18086036E2DFF8D5
:1021B00010090078432808D1DFF84808006830F09B
:1021C0002000DFF84018086028E2DFF8F408007803
:1021D000442808D1DFF82C08006850F02000DFF810
:1021E000241808601AE2DFF8D8080078452808D1DA
:1021F000DFF81008006830F04000DFF808180860C9
:102200000CE2DFF8BC080078462808D1DFF8F407B4
:10221000006850F04000DFF8EC170860FEE1DFF8DE
:10222000A008007847280DD1DFF8D4090068401DC8
:10223000DFF8CC190860DFF8C8090068DFF860141F
:102240000860EBE1DFF87808007848280DD1DFF866
:10225000B0090068401FDFF8A8190860DFF8A0097E
:102260000068DFF83C140860D8E1DFF85408007813
:10227000612808D1DFF88C07006830F00200DFF831
:1022800084170860CAE1DFF838080078622808D1AE
:10229000DFF87007006850F00200DFF86817086088
:1022A000BCE1DFF81C080078632808D1DFF8540788
:1022B000006830F00400DFF84C170860AEE1DFF88A
:1022C00000080078642808D1DFF83807006850F06B
:1022D0000400DFF830170860A0E1DFF8E4070078B9
:1022E000652808D1DFF81C07006830F00800DFF827
:1022F0001417086092E1DFF8C8070078662808D153
:10230000DFF80007006850F00800DFF8F8160860F2
:1023100084E1DFF8AC070078672813D1DFF8DC0828
:102320000068401DDFF8D4180860DFF8D0080068A6
:10233000DFF864130860DFF8C4080068DFF85C1396
:1023400008606BE1DFF878070078682810D1DFF8C3
:10235000AC080068401FDFF8A4180860DFF89C088C
:102360000068CE49086059E100000000000000004C
:10237000DFF84C070078722810D1DFF88806006873
:1023800030F01000DFF87C160860DFF8780600688F
:1023900030F00200DFF86C1608603FE1DFF820073C
:1023A00000786C2810D1DFF85C06006850F010004F
:1023B000DFF850160860DFF84C06006850F00200A5
:1023C000DFF84016086029E1DFF8F40600785228AB
:1023D0002DD19FEDBE0BDFF82C0880ED000BDFF850
:1023E000280880ED000BDFF8240880ED000BB548CD
:1023F00080ED000BDFF8180880ED000BDFF8140803
:1024000080ED000BDFF8100880ED000BDFF80C0802
:1024100080ED000B0020DFF8081808600020DFF8CE
:10242000541B08600120DFF800180860F6E0DFF8B0
:10243000900600784D2807D1DFF83C0B0068643027
:10244000DFF8341B0860E9E0DFF8740600784E28F6
:1024500007D1DFF8240B00686438DFF81C1B086024
:10246000DCE0DFF85C060078532804D10120DFF8B7
:102470000C1B0860D2E0DFF848060078592808D124
:102480000020DFF8FC1A08600120DFF8F01808606F
:10249000C4E0DFF82C060078742804D10120DFF8AE
:1024A000E41A0860BAE0DFF818060078752804D14D
:1024B0000120DFF8D41A0860B0E0DFF804060078E5
:1024C000762804D10120DFF8C41A0860A6E0DFF8FE
:1024D000F0050078772804D10120DFF8B41A0860ED
:1024E0009CE0DFF8DC05007869280BD14FF4C87058
:1024F000DFF83C170860DFF838070068DFF8781865
:1025000008608BE0DFF8B80500786A280BD14FF43B
:102510007A70DFF81C170860DFF814070068DFF82E
:10252000581808607AE0DFF8980500786B280DD11C
:10253000DFF8FC0600681438DFF8F4160860DFF8EE
:10254000F0060068DFF83018086067E0DFF8700513
:1025500000786E280DD1DFF8D80600681430DFF857
:10256000D0160860DFF8C8060068DFF80C180860AD
:1025700054E0DFF84C0500786D2808D1DFF8AC0690
:10258000006830F00400DFF8A416086046E0DFF8C9
:10259000300500786F2808D1DFF89006006850F009
:1025A0000400DFF88816086038E0DFF814050078CA
:1025B000702808D1DFF87406006840084000DFF892
:1025C0006C1608602AE0DFF8F8040078712808D15A
:1025D000DFF85806006850F00100DFF85016086078
:1025E0001CE0DFF8DC040078492802D101F0BFFDCF
:1025F00014E0DFF8CC0400784A2802D101F0A4FDF1
:102600000CE0DFF8BC0400784B2807D1DFF81C068B
:10261000006830F07800DFF814160860DFF8A404D2
:10262000D0E90023DFF8EC1ADFF8EC0A02F050FFE3
:10263000DFF8E80AD0E90023DFF8D81ADFF8E00A6B
:1026400002F046FFDFF8DC0AD0E90023DFF8C41A05
:10265000DFF88C0B02F03CFFDFF8BC0A00F046FC10
:10266000202000F039FCDFF8B80A00F03FFC202001
:1026700000F032FCDFF8680B00F038FC0A2000F0B4
:102680002BFC0A2000F028FC0A2000F025FC01BDEC
:1026900034050020300500203805002034040040B7
:1026A000380400400050004004500040E400002086
:1026B000280500202C050020740200204004002082
:1026C00048040020800400203800002000000000A2
:1026D0000000000010B52DED028BDFF8080B00881C
:1026E000800640F18481DFF8000B0088C0B2242806
:1026F00011D10021DFF8582D1160DFF8F01ADFF852
:10270000502D12688854DFF8480D0068401CDFF82F
:10271000401D08606BE1C0B22C2825D1DFF8CC1A2F
:10272000DFF82C2D1268114411F8011C2C290DD151
:102730003021DFF8B82ADFF8183D1B68D154DFF8E4
:10274000101D0968491CDFF8082D1160DFF89C1A7C
:10275000DFF8FC2C12688854DFF8F40C0068401C89
:10276000DFF8EC1C086042E1C0B22A2833D1DFF860
:102770007C1ADFF8DC2C1268114411F8011C2C299A
:102780000DD13021DFF8642ADFF8C43C1B68D15436
:10279000DFF8BC1C0968491CDFF8B42C11602C213F
:1027A000DFF8482ADFF8A83C1B68D154DFF8A01CEA
:1027B0000968491CDFF8982C1160DFF8301ADFF83F
:1027C000902C12688854DFF8880C0068401CDFF8F1
:1027D000801C08600BE1C0B20D280ED10020DFF88C
:1027E0000C1ADFF86C2C12688854DFF8640C00684F
:1027F000401CDFF85C1C0860F9E0C0B20A2840F019
:10280000E4800020DFF8E419DFF8442C12688854D3
:10281000DFF83C0C0068401CDFF8341C086006221E
:10282000DFF8C819DFF8C80900F0F2F8002840F016
:10283000DE80A2A1DFF8B40903F01AFBDFF8B419B7
:102840000860B8E0DFF8AC090068DFF8AC19DFF821
:10285000AC29126841F8220098A1002003F008FB7F
:10286000DFF890190860DFF894090068401CDFF871
:102870008C190860DFF8840900681028E2DBDFF8B3
:102880007809806803F01BFBB0EE408AF0EE608AA6
:1028900051EC180B02F0AAFC642190FBF1F453EC0C
:1028A000182B0020DFF8581902F0CEFB41EC100B7A
:1028B00051EC100B02F09AFCDFF8481990FBF1F292
:1028C00001FB120002F0AAFB41EC100B51EC100BC3
:1028D0000022DFF82C3902F0D7FC41EC100B51EC50
:1028E000100B0022DFF8203902F0CEFC41EC180B6F
:1028F000200002F093FB53EC182B02F07BFEDFF874
:102900000C29C2E90001DFF80409D0E90023DFF84F
:102910000019DFF8000902F0DBFDDFF8DC080069D0
:1029200003F0CDFAB0EE408AF0EE608A51EC180B5D
:1029300002F05CFC642190FBF1F453EC182B0020B6
:10294000DFF8BC1802F080FB41EC100B51EC100BCF
:1029500002F04CFCDFF8AC1890FBF1F201FB120026
:1029600002F05CFB41EC100B51EC100B0022DFF885
:10297000903802F089FC41EC100B51EC100B002256
:10298000DFF8843802F080FC41EC180B200002F0E4
:1029900045FB53EC182B02F02DFEDFF8B82AC2E9F4
:1029A0000001DFF8B00AD0E90023DFF86418DFF88F
:1029B000A80A02F08DFDDFF83C080068002816D058
:1029C0000020DFF83818086054E7DFF8841A096837
:1029D000B4290CDADFF81418DFF8742A1268885466
:1029E000DFF86C0A0068401CDFF8641A0860BDEC70
:1029F000028B10BD004C0040044C0040FCA9F1D2F9
:102A00004D62503F14180240B00500204D6250BF87
:102A100030B4002405E00378002B0AD0401C491C88
:102A2000641C531E9C4204D203780D78AB42F2D052
:102A3000FFE702780B789A4201D1002007E009787D
:102A40000078814201D2012001E05FF0FF3030BC0C
:102A50007047DFF8080A006850F04000DFF8FC1902
:102A60000860DFF8FC090168DFF8F8090143DFF8C6
:102A7000F0090160DFF8F0090068000A0002DFF8E1
:102A8000E8190860DFF8D409006850F01000DFF89A
:102A9000CC190860DFF8D4090168DFF8D4090143D4
:102AA000DFF8C8090160DFF8200C0168DFF8C4090D
:102AB0000140DFF8140C0160704700002C0000009A
:102AC000CC05002000000020003C0140F80400205C
:102AD000140500201C0500201805002048050020D2
:102AE00080B5DFF87809006850F00400DFF86C1951
:102AF0000860DFF88409006850F40010DFF87819E6
:102B00000860DFF80C0B006850F44010DFF8001B81
:102B10000860DFF8000B006850F40060DFF8F41A7A
:102B20000860DFF85409006850F40000DFF8481925
:102B30000860DFF8DC0A006850F44000DFF8D01AC3
:102B40000860DFF8D00A006850F40040DFF8C41ACB
:102B50000860DFF8C40A006850F40020DFF8B81AF3
:102B600008604FF4165000F04DFADFF8600B018852
:102B70004EF6FF700140DFF8540B0180DFF84C0B7C
:102B800001884FF6FF300140DFF8400B0180DFF88D
:102B90003C0B008850F00400DFF8301B0880DFF8A1
:102BA0002C0B008850F00800DFF8201B0880DFF8AD
:102BB0006C0A01884CF6FF700140DFF8600A018062
:102BC0000020DFF85C1A0880DFF8000B008850F066
:102BD0002000DFF8F81A0880DFF8F40A006850F4E3
:102BE0008010DFF8EC1A0860DFF8E00A008850F483
:102BF0000050DFF8D81A088001BD00003000002026
:102C00003400002088040020700400207804002094
:102C100068040020600400205804002050040020B4
:102C2000740500207C0500201005002014100240CF
:102C3000A805002080B50F213720FDF7A5FADFF8A1
:102C40001C08006850F00400DFF810180860DFF876
:102C50002808006850F00070DFF81C180860DFF8E2
:102C6000B009006850F04070DFF8A4190860DFF880
:102C7000A409006850F40020DFF898190860DFF814
:102C8000DC07006850F00800DFF8D0170860DFF8B4
:102C9000440A006850F02000DFF8381A0860DFF8B6
:102CA000380A006850F03000DFF82C1A0860DFF8AE
:102CB0002C0A006850F40060DFF8201A0860DFF882
:102CC0005809006850F48010DFF84C1908605FF470
:102CD000E13000F05FF9DFF8080A01884EF6FF7076
:102CE0000140DFF8FC090180DFF8F40901884FF6A4
:102CF000FF300140DFF8E8090180DFF8E4090188CE
:102D00004EF6FF700140DFF8D8090180DFF8D009E6
:102D1000008850F00400DFF8C8190880DFF8C00907
:102D2000008850F00800DFF8B8190880DFF8B4090F
:102D300001884CF6FF700140DFF8A80901800020EF
:102D4000DFF8A4190880DFF89809008850F0200007
:102D5000DFF88C190880DFF87809006850F400105B
:102D6000DFF86C190860DFF87809008850F400502B
:102D7000DFF86C19088001BD34000140A405002073
:102D800080B50E212620FDF7FFF9DFF8D006006898
:102D900050F00800DFF8C4160860DFF83809006852
:102DA00050F40060DFF82C190860DFF82C09006887
:102DB00050F44060DFF820190860DFF8300900683F
:102DC00050F4E000DFF824190860DFF8900600688E
:102DD00050F00800DFF884160860DFF8F808006893
:102DE00050F40050DFF8EC180860DFF8EC080068D9
:102DF00050F44050DFF8E0180860DFF8E0080068A1
:102E000050F0E060DFF8D4180860DFF80C080068C4
:102E100050F40030DFF8001808604FF4164000F05E
:102E2000A7F9DFF8CC0801884EF6FF700140DFF803
:102E3000C0080180DFF8B80801884FF6FF30014074
:102E4000DFF8AC080180DFF8A80801884EF6FF70B3
:102E50000140DFF89C080180DFF89408008850F0FA
:102E60000400DFF88C180880DFF88408008850F030
:102E70000800DFF87C180880DFF8780801884CF635
:102E8000FF700140DFF86C0801800020DFF868184F
:102E90000880DFF85C08008850F02000DFF8501848
:102EA0000880DFF82C08006850F04000DFF8201898
:102EB0000860DFF83C08008850F40050DFF8301854
:102EC000088001BDDFF8381809880906FAD5C0B2B4
:102ED000DFF8301808807047DFF8201809880906E5
:102EE000FAD5C0B2DFF820180880704710B504008A
:102EF00003E02078FFF7F0FF641C20780028F8D169
:102F000010BD0021DFF8042800210021DFF800189F
:102F10000988090405D519214A434000B2FBF0F2A3
:102F200004E019214A438000B2FBF0F26420B2FBB6
:102F3000F0F109010B001B09642000FB1322DFF8EC
:102F4000D0070088000408D5D00032306422B0FBDE
:102F5000F2F010F00700014307E010013230642264
:102F6000B0FBF2F010F00F000143DFF8A80701807A
:102F700070470000440500203C0000208005002030
:102F80009C05002054050020580500205C05002009
:102F9000600500200021DFF8802700210021DFF8F4
:102FA00040170988090405D519214A434000B2FB9E
:102FB000F0F204E019214A438000B2FBF0F26420F1
:102FC000B2FBF0F109010B001B09642000FB132286
:102FD000DFF80C070088000408D5D00032306422E6
:102FE000B0FBF2F010F00700014307E010013230AF
:102FF0006422B0FBF2F010F00F000143DFF81C0771
:10300000018070470021DFF8102700210021DFF840
:10301000BC160988090405D519214A434000B2FBB2
:10302000F0F204E019214A438000B2FBF0F2642080
:10303000B2FBF0F109010B001B09642000FB132215
:10304000DFF888060088000408D5D00032306422FA
:10305000B0FBF2F010F00700014307E0100132303E
:103060006422B0FBF2F010F00F000143DFF8B0066D
:1030700001807047DFF8E403006850F00800DFF8D3
:10308000DC130860DFF89C06006850F48040DFF82D
:1030900094160860DFF83C06006830F47000DFF832
:1030A00034160860DFF88006006850F44C50DFF8F2
:1030B00078160860DFF874060068DFF8701608609C
:1030C000DFF86C06006850F40060DFF864160860F2
:1030D000DFF85C06006850F48060DFF85416086082
:1030E000DFF85006006850F40060DFF8481608600A
:1030F000DFF84006006850F48060DFF8381608609A
:10310000DFF8CC05006850F48070DFF8C415086063
:1031100070470000D4B100083003002008000020F0
:10312000A003002010000020DFF80C060068000556
:103130000CD5DFF80406006850F40060DFF8F815DD
:1031400008600120DFF8F415086010E0DFF8E805FA
:10315000006840050BD5DFF8E005006850F480609A
:10316000DFF8D41508600220DFF8D015086070473A
:103170000021DFF8A42500210021DFF8741509885B
:10318000090405D519214A434000B2FBF0F204E0DE
:1031900019214A438000B2FBF0F26420B2FBF0F147
:1031A00009010B001B09642000FB1322DFF8400516
:1031B0000088000408D5D00032306422B0FBF2F061
:1031C00010F00700014307E0100132306422B0FB29
:1031D000F2F010F00F000143DFF864050180704742
:1031E000B40300200044004004440040AC0100202F
:1031F000DCB1000890050020B402002094050020F6
:10320000006AF8408096980000004E409804002024
:10321000E4B10008C803002080B59048006850F071
:1032200004008E490860DFF8F003006850F00200E7
:10323000DFF8E41308609048006850F400508E49AD
:103240000860DFF8CC03006850F44050DFF8C0138A
:103250000860DFF8F004006830F04000DFF8E414A4
:103260000860DFF8E404006850F48050DFF8D814F8
:103270000860DFF8D804006850F00070DFF8CC1464
:1032800008607D48006850F400407B490860E048D1
:10329000006850F44040DE490860DFF8A804006888
:1032A00030F08000DFF89C140860DFF89C040068B0
:1032B00050F48040DFF890140860DFF89004006854
:1032C00050F00050DFF8841408602920DFF88014E3
:1032D000088040F2CF70DFF87C140860DFF81C0E25
:1032E00001884FF6EF700140DFF8100E0180DFF823
:1032F0000C0E01884FF6FD700140DFF8000E0180D2
:10330000DFF8F80D01884FF6FB700140DFF8EC0D97
:103310000180DFF8E80D01884FF6F7700140DFF813
:10332000DC0D0180DFF8D40D01884FF67F7001407D
:10333000DFF8C80D0180DFF8C40D01884FF6FF40AB
:103340000140DFF8B80D0180DFF8B00D01884FF6BD
:103350009F700140DFF8A40D0180DFF8FC030088B6
:1033600050F00100DFF8F0130880DFF8EC0301886B
:103370004FF6FD700140DFF8E0030180DFF8D8036D
:10338000008850F01000DFF8D0130880DFF8C80381
:1033900001884FF6DF700140DFF8BC030180DFF8E1
:1033A000BC030068DFF8B8130860DFF8B8030068F2
:1033B000DFF8B41308606420009000234FF4FA6231
:1033C0000021E6480068FEF7A9FAE84801884FF6B0
:1033D000FC700140E5480180E448008850F0080096
:1033E000E2490880E148008850F07000DF49088019
:1033F000DE48008850F08000DC490880DB48018806
:103400004FF6FF400140D9480180D848008850F469
:103410000060D6490880D548008850F4E040D34980
:103420000880D248008850F40040D0490880DFF876
:10343000CC0C008850F08000DFF8C01C0880DFF85A
:10344000BC0C008850F00100DFF8B01C088001BD02
:103450008C050020A0040020DC030020303802404E
:1034600000180240555505000418024000100240A3
:103470005555510000F00FFF00080240BC4800689D
:1034800050F01000BA490860A648006850F00100EA
:10349000A4490860DFF8680C006850F40020DFF8E9
:1034A000601C0860DFF85C0C006850F44020DFF816
:1034B000541C08608448006830F400708249086039
:1034C000DFF8440C006850F01000DFF83C1C086086
:1034D000DFF82C0C006850F48010DFF8241C086022
:1034E000DFF8200C006850F48010DFF8181C08602A
:1034F0007548006830F4806073490860DFF8000C9C
:10350000006850F48000DFF8F81B0860DFF8F40B67
:10351000006850F48000DFF8EC1B08606A4800681F
:1035200030F40060684908605320DFF8681C0880A8
:1035300040F2CF70DFF8601C0860DFF8600C008894
:1035400050F00100DFF8541C0880DFF8500C0188AF
:103550004FF6FD700140DFF8440C0180C820DFF811
:10356000401C0860DFF83C0C01884FF6FC700140FD
:10357000DFF8300C0180DFF82C0C008850F00800D8
:10358000DFF8201C0880DFF81C0C008850F0600079
:10359000DFF8101C0880DFF80C0C008850F0800069
:1035A000DFF8001C0880DFF8000C01884FF6EF7090
:1035B0000140DFF8F40B0180DFF8EC0B01884FF6D7
:1035C000FF400140DFF8E00B0180DFF8DC0B0188F1
:1035D0004FF69F700140DFF8D00B0180DFF8C80B79
:1035E000008850F08000DFF8C01B0880DFF8BC0BBB
:1035F000008850F40040DFF8B41B0880DFF8A80B07
:10360000008850F00100DFF8A01B08807047000020
:10361000080802402408024040380240104C004094
:10362000144C004080B510213720FCF7ADFDDFF8C9
:10363000800B006850F02000DFF8741B08602448FD
:10364000006850F400002249086040F2A310DFF83F
:10365000641B088044F61F60DFF85C1B0860DFF81D
:103660005C0B01884FF6EF700140DFF8500B0180D2
:10367000DFF8480B01884FF6FF400140DFF83C0BB4
:103680000180DFF8380B01884FF69F700140DFF8AA
:103690002C0B0180DFF8280B008850F00100DFF8C8
:1036A000201B0880DFF81C0B008850F00100DFF8B9
:1036B000141B0880DFF8040B008850F00100DFF8CD
:1036C000FC1A088001BD0000041002400C4C0040B0
:1036D00004E100E0000C0240080C0240200C024013
:1036E0000C5000401050004014500040240C024088
:1036F0000C4400401044004014440040004C004082
:103700000050004004500040044C004000BD010542
:103710000C1001400810014080DE8002085000407B
:10372000084C004044380240103801401438014031
:103730000C3C0140003C0140143C0140B805002015
:1037400008440040040802400C08024020080240DF
:10375000280400402C0400402004004030000020D9
:1037600034040040340000203804004018040040B5
:103770003038024038B52DED0A8B82B0DFF8480AA8
:1037800001884FF6FE700140DFF83C0A0180DFF847
:103790003C0A0068012840F01682DFF8340A00680D
:1037A000401CDFF82C1A0860DFF8240A0068322871
:1037B000C0F20982DFF81C0A0068042804DB00203C
:1037C000DFF8101A0860F6E1DFF8080A0068401C0C
:1037D000DFF8001A0860DFF8FC0900680228C0F270
:1037E000EA81DFF8F0090068042853DADFF8E80915
:1037F000DFF8E819096800EBC100D0E90023DFF821
:10380000E009DFF8E01901F01FFCDFF8DC29C2E96C
:103810000001DFF8D809DFF8C419096800EBC1001E
:10382000D0E90023DFF8B809DFF8B81901F00CFC83
:10383000DFF8BC29C2E90001DFF8A0090068401CDC
:10384000DFF898190860DFF89009DFF89019096827
:1038500000EBC100D0E90023DFF88409DFF8841908
:1038600001F0F2FBDFF88C29C2E90001DFF87C09E6
:10387000DFF86819096800EBC100D0E90023DFF820
:103880006009DFF8601901F0DFFBDFF86C29C2E99D
:1038900000014DE0DFF83C090068042848DBDFF850
:1038A0003809D0E90023DFF83809DFF8381901F0CA
:1038B000CBFBDFF83429C2E90001DFF83009D0E999
:1038C0000023DFF81C09DFF81C1901F0BDFBDFF84D
:1038D0002029C2E90001DFF804090068401CDFF874
:1038E000FC180860DFF8F008DFF8F018096800EB52
:1038F000C100D0E90023DFF8E808DFF8E81801F09C
:10390000A3FBDFF8F028C2E90001DFF8E008DFF8E8
:10391000CC18096800EBC100D0E90023DFF8C0082B
:10392000DFF8C01801F090FBDFF8CC28C2E90001F5
:10393000DFF8A8080068012866D1DFF8AC0890ED30
:10394000000B02F0CCFAB0EE408AF0EE608ADFF8AD
:10395000A40890ED000B02F0C2FAB0EE409AF0EE2F
:10396000609ADFF8840890ED000B02F0B2FAB0EE36
:1039700040AAF0EE60AADFF87C0890ED000B02F0A0
:10398000A8FAB0EE40BAF0EE60BADFF86408D0E909
:103990000001DFF86428D2E9002301F0B9FD41EC11
:1039A000100B02F096FAB0EE40CAF0EE60CA53EC8B
:1039B000182B51EC190B01F047FB04000D0053ECE0
:1039C0001A2B51EC1B0B01F03FFB53EC1C2B01F0AD
:1039D0003BFB22002B0001F00DFE41EC100B02F02E
:1039E00072FADFF8180880ED000BDFF81008D0E954
:1039F0000023DFF80C08DFF80C1801F025FBDFF8D6
:103A00000828C2E90001D6E0DFF8D00700680228E4
:103A100066D1DFF8D40790ED000B02F060FAB0EE4B
:103A2000408AF0EE608ADFF8CC0790ED000B02F0E0
:103A300056FAB0EE409AF0EE609ADFF8AC0790EDDF
:103A4000000B02F046FAB0EE40AAF0EE60AADFF8F2
:103A5000A40790ED000B02F03CFAB0EE40BAF0EE95
:103A600060BADFF88C07D0E90001DFF88C27D2E9D3
:103A7000002301F04DFD41EC100B02F02AFAB0EEEC
:103A800040CAF0EE60CA53EC182B51EC190B01F050
:103A9000DBFA04000D0053EC1A2B51EC1B0B01F068
:103AA000D3FA53EC1C2B01F0CFFA22002B0001F0CB
:103AB000A1FD41EC100B02F006FADFF8400780EDA3
:103AC000000BDFF83807D0E90023DFF83407DFF810
:103AD000341701F0B9FADFF83427C2E900016AE0CF
:103AE000DFF8F8060068032865D1DFF8FC0690EDE2
:103AF000000B02F0F4F9B0EE408AF0EE608ADFF8D5
:103B0000F40690ED000B02F0EAF9B0EE409AF0EE08
:103B1000609ADFF8D40690ED000B02F0DAF9B0EE0F
:103B200040AAF0EE60AADFF8CC0690ED000B02F0A0
:103B3000D0F9B0EE40BAF0EE60BADFF8B406D0E9E2
:103B40000001DFF8B426D2E9002301F0E1FC41ECEA
:103B5000100B02F0BEF9B0EE40CAF0EE60CA53ECB2
:103B6000182B51EC190B01F06FFA04000D0053EC07
:103B70001A2B51EC1B0B01F067FA53EC1C2B01F0D4
:103B800063FA22002B0001F035FD41EC100B02F02E
:103B90009AF9DFF8680680ED000BDFF86006D0E9DF
:103BA0000023DFF85C06DFF85C1601F04DFADFF861
:103BB0006026C2E900010020DFF81416086000202A
:103BC000DFF808160860DFF84C06006801281AD1F3
:103BD000DFF844060068401CDFF83C160860DFF898
:103BE0003806006832280EDBDFF830060068401C1B
:103BF000DFF8281608600020DFF81816086000209B
:103C0000DFF814160860DFF818060068012840F095
:103C1000A580DFF810060068012804D0DFF804064C
:103C20000068022808D1DFF80006DFF8001691EDE1
:103C3000000B80ED000B91E041F26210009041F228
:103C40009A0340F2DC524FF46171DFF8E40500683A
:103C5000FDF770FEDFF8DC150860DFF8D8050068B6
:103C600001F0DCF9DFF8D025DFF8D03501F0ECF910
:103C70000022DFF8CC3501F007FBDFF8C825C2E9E8
:103C80000001DFF8A0050068012804D0DFF89405E2
:103C90000068022807D1DFF89005DFF8901591ED54
:103CA000000B80ED000BDFF88405D0E90023DFF87E
:103CB0009405D0E9000101F09DFCDFF87025C2E910
:103CC0000001DFF86805D0E90023DFF87C15DFF894
:103CD0007C0501F0FDFBDFF87805D0E9002300202A
:103CE000DFF8701501F086FC02000B00DFF83C05E0
:103CF000D0E9000101F098FA30D8DFF85C050068DF
:103D0000401CDFF854150860DFF85005006850F0DB
:103D10004000DFF848150860DFF84005006850F003
:103D20000800DFF838150860DFF83405006850F047
:103D30000400DFF82C1508600020DFF8E4140860A8
:103D4000DFF8E80400220023C0E900230020DFF8A8
:103D5000D41408600120DFF80C150860DFF80405B2
:103D6000006801282DD1DFF8F804006850F0040045
:103D7000DFF8EC140860DFF8F0040068401CDFF89E
:103D8000E8140860DFF8E0040068142840F0B1810E
:103D90000020DFF8D4140860DFF8C004006850F099
:103DA0004000DFF8B8140860DFF8B004006850F095
:103DB0000800DFF8A81408600020DFF8A8140860E5
:103DC00097E1DFF8A004006802287AD1DFF89004B8
:103DD000006850F00400DFF888140860DFF87C0405
:103DE000006830F04000DFF874140860DFF86C04FD
:103DF000006830F00800DFF8641408604FF4FA60DF
:103E0000DFF830140860DFF82C04006801F006F9D0
:103E1000DFF82424DFF8243401F016F90022DFF85B
:103E2000203401F031FADFF81C24C2E90001DFF888
:103E3000FC03D0E90023DFF80C04D0E9000101F015
:103E4000D9FBDFF8E823C2E90001DFF8E003D0E99D
:103E50000023DFF8F413DFF8F40301F039FBDFF897
:103E60000C04D0E900230020DFF8E81301F0C2FBC6
:103E700002000B00DFF8B403D0E9000101F0D4F92F
:103E800000F23781DFF8D403006850F04000DFF81B
:103E9000CC130860DFF8C403006850F00800DFF8B6
:103EA000BC130860DFF8840300220023C0E900236C
:103EB0000020DFF8701308600020DFF8A813086006
:103EC00017E1DFF8A0030068032855D1DFF890035D
:103ED000006830F00400DFF888130860DFF87C0326
:103EE000006850F01000DFF874130860DFF86C030E
:103EF000006830F00200DFF864130860DFF85C034C
:103F0000006830F04000DFF854130860DFF84C031D
:103F1000006830F00800DFF844130860DFF8480359
:103F20000068401CDFF840130860DFF83C030068BD
:103F30001E2840F0DE800020DFF82C130860DFF838
:103F40002003006850F00400DFF814130860DFF865
:103F50000C03006850F04000DFF800130860DFF841
:103F6000FC02006850F00800DFF8F0120860002042
:103F7000DFF8F0120860BCE0DFF8E802006804280F
:103F80003CD1DFF8D802006830F01000DFF8CC1226
:103F90000860B248006850F00200B0490860AF48BD
:103FA000006830F04000AD490860AC48006830F06F
:103FB0000800AA490860AC480068401CAA4908608B
:103FC000A94800681E2840F094800020A649086097
:103FD000A348006850F00400A14908609F480068A9
:103FE00050F040009D4908609C48006850F008006F
:103FF0009A49086000209B4908607AE09948006867
:10400000052839D19548006830F0100093490860C0
:104010009248006850F00200904908608F4800689C
:1040200030F040008D4908608C48006830F008008E
:104030008A4908608C480068401C8B4908608A489F
:104040000068282855D10020874908608448006806
:1040500050F00400824908608048006850F0400039
:104060007E4908607D48006850F008007B49086080
:1040700000207C4908603CE07A480068062838D176
:104080007648006850F01000744908607348006872
:1040900030F00200714908607048006830F040005C
:1040A0006E4908606D48006830F008006B49086090
:1040B0006D480068401C6C4908606B4800682828FF
:1040C00017D10020684908606548006850F0040076
:1040D000634908606148006850F040005F4908602B
:1040E0005E48006850F008005C49086000205D49A7
:1040F000086002B0BDEC0A8B31BD00000004004036
:1041000000100240081002402410024038B504009C
:10411000002504E04FF47A7000F008F86D1C2800C8
:10412000210080B289B28842F4D331BD81B080B21F
:1041300011214843009002E00098401E0090009832
:104140000028F9D101B070474548006830F0780088
:10415000434908604248006850F008004049086040
:104160003F48006850F020003D49086070473C48D7
:10417000006830F078003A4908603948006850F02B
:104180001000374908603648006850F04000344954
:1041900008607047280001402C00014020000140C9
:1041A000340001401800014000000140440001407B
:1041B00040380240281400402C14004000140040F5
:1041C000141400400C14004010140040800500201E
:1041D0008405002098050020480300209C0500204D
:1041E0006811F16346DF913FA804002068030020B6
:1041F000B0040020B8040020C0040020C80400203F
:104200009C33A20479495841D0040020D8040020EE
:10421000E00400208805002078050020A00500208B
:10422000B0050020B805002000050020F80400209B
:1042300034000020AC0500205107C3CAB271963F7C
:1042400000408F40F0040020E4B100082C0400205E
:10425000200000200000E03FB405002014180240B8
:104260001410024024050020200500202800002012
:104270001CB56420009000234FF4FA620021DFF89F
:10428000FC0C0068FDF74AFBDFF8F41C08606420B2
:10429000009000234FF4FA620021DFF8E80C006878
:1042A000FDF73CFBDFF8E01C08604FF6E070019082
:1042B00000200090DFF8D43CDFF8C00C00684FF419
:1042C0007A7190FBF1F23032D2B246214B2001F0EC
:1042D00062FD4FF47A704FF6E07101910021009178
:1042E000DFF8A83CDFF8941C0968DFF8902C12680E
:1042F00092FBF0F200FB1210642190FBF1F23032DD
:10430000D2B24621552001F046FD64204FF6E071FF
:10431000019100210091DFF8743CDFF8601C09680E
:10432000DFF8582C126892FBF0F200FB12100A2101
:1043300090FBF1F23032D2B246215F2001F02BFD2A
:104340000A224FF6E070019000200090DFF83C3C1C
:10435000DFF8280C0068DFF8241C096891FBF2F1F3
:1043600002FB11023032D2B24621692001F013FD66
:104370004FF6E070019000200090DFF8103CDFF86D
:10438000040C00684FF47A7190FBF1F23032D2B233
:104390004621BE2001F0FFFC4FF47A704FF6E07129
:1043A000019100210091DFF8E43BDFF8D81B096898
:1043B000DFF8D02B126892FBF0F200FB12106421A0
:1043C00090FBF1F23032D2B24621C82001F0E3FC7A
:1043D00064204FF6E071019100210091DFF8AC3BC1
:1043E000DFF8A01B0968DFF89C2B126892FBF0F243
:1043F00000FB12100A2190FBF1F23032D2B24621BA
:10440000D22001F0C8FC0A224FF6E0700190002093
:104410000090DFF8783BDFF86C0B0068DFF8641B76
:10442000096891FBF2F102FB11023032D2B246214F
:10443000DC2001F0B0FC4FF6E0700190002000900D
:10444000DFF8483BDFF8380B0068642190FBF1F29D
:104450003032D2B25A214B2001F09DFC64204FF63D
:10446000E071019100210091DFF8203BDFF8101B83
:104470000968DFF80C2B126892FBF0F200FB1210B7
:104480000A2190FBF1F23032D2B25A21552001F0CC
:1044900082FC0A224FF6E070019000200090DFF8C5
:1044A000EC3ADFF8DC0A0068DFF8D41A096891FBFF
:1044B000F2F102FB11023032D2B25A215F2001F038
:1044C0006AFC4FF6E070019000200090DFF8BC3AE3
:1044D00025225A21692001F05EFC4FF6E070019020
:1044E00000200090DFF8A43ADFF89C0A00686421FD
:1044F00090FBF1F23032D2B25A21BE2001F04BFCD7
:1045000064204FF6E071019100210091DFF87C3AC0
:10451000DFF8741A0968DFF8702A126892FBF0F26B
:1045200000FB12100A2190FBF1F23032D2B25A2174
:10453000C82001F030FC0A224FF6E0700190002004
:104540000090DFF8483ADFF8400A0068DFF8381AD0
:10455000096891FBF2F102FB11023032D2B25A210A
:10456000D22001F018FC4FF6E0700190002000907E
:10457000DFF8183A25225A21DC2001F00CFCDFF884
:104580001C0A40690078202840F0C280DFF8100A39
:10459000DFF8101AD1E9002393F00043C0E90023AB
:1045A0004FF6E070019000200090DFF8E0392D22F6
:1045B0002821502001F0EFFB4FF6E0700190002021
:1045C0000090DFF8C8391C00DFF8D809D0E90023D3
:1045D0000020DFF8D41900F037FD00F007FE42F2AA
:1045E000107190FBF1F230322300D2B228215A2010
:1045F00001F0D1FBDFF8AC09D0E900230020DFF89F
:10460000A81900F021FD00F0F1FD42F210714FF603
:10461000E072019200220092DFF8703990FBF1F213
:1046200001FB12004FF47A7190FBF1F23032D2B2FA
:104630002821642001F0AFFBDFF86809D0E90023EE
:104640000020DFF8641900F0FFFC00F0CFFD4FF40C
:104650007A714FF6E072019200220092DFF82C3955
:1046600090FBF1F201FB1200642190FBF1F2303279
:10467000D2B228216E2001F08EFB4FF6E07001903F
:1046800000200090DFF804392E222821782001F044
:1046900082FBDFF81009D0E900230020DFF80819B9
:1046A00000F0D2FC00F0A2FD64214FF6E07201920E
:1046B00000220092DFF8D43890FBF1F201FB1200E7
:1046C0000A2190FBF1F23032D2B22821822001F08F
:1046D00062FBDFF8D008D0E900230020DFF8C8181B
:1046E00000F0B2FC00F082FD0A214FF6E072019268
:1046F00000220092DFF8943890FBF1F201FB1200E7
:1047000030300200D2B228218C2001F044FBBEE000
:10471000DFF88C08DFF88C1891ED000B80ED000BB2
:104720004FF6E070019000200090DFF86038202202
:104730002821502001F02FFB4FF6E070019000205F
:104740000090DFF848381C00DFF85808D0E9002353
:104750000020DFF8541800F077FC00F047FD42F22B
:10476000107190FBF1F230322300D2B228215A208E
:1047700001F011FBDFF82C08D0E900230020DFF85E
:10478000281800F061FC00F031FD42F210714FF684
:10479000E072019200220092DFF8F03790FBF1F214
:1047A00001FB12004FF47A7190FBF1F23032D2B279
:1047B0002821642001F0EFFADFF8E807D0E90023B0
:1047C0000020DFF8E41700F03FFC00F00FFD4FF48D
:1047D0007A714FF6E072019200220092DFF8AC3756
:1047E00090FBF1F201FB1200642190FBF1F23032F8
:1047F000D2B228216E2001F0CEFA4FF6E07001907F
:1048000000200090DFF884372E222821782001F044
:10481000C2FADFF89007D0E900230020DFF88817FC
:1048200000F012FC00F0E2FC64214FF6E07201920D
:1048300000220092DFF8543790FBF1F201FB1200E6
:104840000A2190FBF1F23032D2B22821822001F00D
:10485000A2FADFF85007D0E900230020DFF848175C
:1048600000F0F2FB00F0C2FC0A214FF6E072019268
:1048700000220092DFF8143790FBF1F201FB1200E6
:1048800030300200D2B228218C2001F084FA4FF699
:10489000E070019000200090DFF8F0361C00DFF897
:1048A0000C07D0E900230020DFF8041700F0CCFB50
:1048B00000F09CFC4FF47A7190FBF1F2303223004F
:1048C000D2B27821322001F066FA4FF6E070019002
:1048D00000200090DFF8B4362E2278213C2001F031
:1048E0005AFADFF8C806D0E900230020DFF8C01626
:1048F00000F0AAFB00F07AFC4FF47A714FF6E072F8
:10490000019200220092DFF8843690FBF1F201FB65
:104910001200642190FBF1F23032D2B278214620AD
:1049200001F039FADFF88406D0E900230020DFF82F
:10493000801600F089FB00F059FC64214FF6E0720C
:10494000019200220092DFF8443690FBF1F201FB65
:1049500012000A2190FBF1F23032D2B278215020BD
:1049600001F019FADFF84406D0E900230020DFF84F
:10497000401600F069FB00F039FC0A214FF6E072A6
:10498000019200220092DFF8043690FBF1F201FB65
:10499000120030300200D2B278215A2001F0FBF927
:1049A0004FF6E070019000200090DFF8E0351C0029
:1049B000DFF80006D0E900230020DFF8F41500F04E
:1049C00043FB00F013FC4FF47A7190FBF1F23032AC
:1049D0002300D2B27821A52001F0DDF94FF6E07076
:1049E000019000200090DFF8A4352E227821AF201E
:1049F00001F0D1F9DFF8BC05D0E900230020DFF891
:104A0000B01500F021FB00F0F1FB4FF47A714FF686
:104A1000E072019200220092DFF8703590FBF1F213
:104A200001FB1200642190FBF1F23032D2B2782106
:104A3000B92001F0B0F9DFF87C05D0E900230020AF
:104A4000DFF86C1500F000FB00F0D0FB64214FF69E
:104A5000E072019200220092DFF8303590FBF1F213
:104A600001FB12000A2190FBF1F23032D2B2782120
:104A7000C32001F090F9DFF83C05D0E900230020C5
:104A8000DFF82C1500F0E0FA00F0B0FB0A214FF639
:104A9000E072019200220092DFF8F03490FBF1F214
:104AA00001FB120030300200D2B27821CD2001F09B
:104AB00072F94FF6E070019000200090DFF8CC34DE
:104AC0001C00DFF8F404D0E900230020DFF8E01434
:104AD00000F0BAFA00F08AFB4FF47A7190FBF1F221
:104AE00030322300D2B28C21322001F054F94FF63B
:104AF000E070019000200090DFF890342E228C218D
:104B00003C2001F048F9DFF8B004D0E90023002090
:104B1000DFF89C1400F098FA00F068FB4FF47A710B
:104B20004FF6E072019200220092DFF8603490FBB1
:104B3000F1F201FB1200642190FBF1F23032D2B2AB
:104B40008C21462001F027F9DFF86C04D0E900231E
:104B50000020DFF85C1400F077FA00F047FB6421D6
:104B60004FF6E072019200220092DFF8203490FBB1
:104B7000F1F201FB12000A2190FBF1F23032D2B2C5
:104B80008C21502001F007F9DFF82C04D0E9002334
:104B90000020DFF81C1400F057FA00F027FB0A2170
:104BA0004FF6E072019200220092DFF8E03390FBB2
:104BB000F1F201FB120030300200D2B28C215A20F7
:104BC00001F0E9F84FF6E070019000200090DFF866
:104BD000BC33DFF8E80300684FF47A7190FBF1F220
:104BE0003032D2B28C21C32001F0D5F84FF47A7064
:104BF0004FF6E071019100210091DFF89033DFF86A
:104C0000BC130968DFF8B423126892FBF0F200FBD2
:104C10001210642190FBF1F23032D2B28C21CD20FF
:104C200001F0B9F864204FF6E07101910021009184
:104C3000D64BDFF888130968DFF88023126892FBEF
:104C4000F0F200FB12100A2190FBF1F23032D2B2E6
:104C50008C21D72001F09FF80A224FF6E0700190D6
:104C600000200090C94BD5480068D449096891FBE1
:104C7000F2F102FB11023032D2B28C21E12001F0BC
:104C80008AF84FF6E070019000200090BF4BCC48AE
:104C900000680A2190FBF1F23032D2B2A0215020FC
:104CA00001F079F80A224FF6E070019000200090A0
:104CB000B64BC3480068C249096891FBF2F102FB98
:104CC00011023032D2B2A0215A2001F064F84FF61E
:104CD000E070019000200090AC4BBA4ADC214B20E0
:104CE00001F01BF84FF6E070019000200090A74BF8
:104CF000B54AF0214B2001F010F84FF6E07001901A
:104D000000200090A14BB14800680A2190FBF1F20D
:104D10003032D2B2BE21502001F03DF80A224FF6C7
:104D2000E070019000200090984BA8480068A749C7
:104D3000096891FBF2F102FB11023032D2B2BE21BE
:104D40005A2001F028F84FF6E07001900020009002
:104D50008E4B9F4800680A2190FBF1F23032D2B2AC
:104D6000BE216E2001F017F80A224FF6E070019084
:104D700000200090854B964800689549096891FB92
:104D8000F2F102FB11023032D2B2BE21782001F0E2
:104D900002F84FF6E0700190002000907B4B8D48A8
:104DA00002683032D2B2BE218C2000F0F4FF4FF600
:104DB000E070019000200090744B87480268303208
:104DC000D2B2BE21A02000F0E6FF4FF6E0700190C5
:104DD000002000906D4B814A4FF48C71462000F00A
:104DE0009CFF4FF6E070019000200090674B7C4ADA
:104DF0004FF48271462000F090FF4FF6E070019072
:104E000000200090614B774802683032D2B2E62130
:104E1000C82000F0C0FF4FF6E07001900020009025
:104E20005A4B714AA021962000F077FF13BD000075
:104E3000E0B501F05BF800F0B1FC002000F02BFFC2
:104E40004FF6E070019000200090684B684A0A21FC
:104E50000A2000F062FF4FF6E07001900020009001
:104E60004A4B644A28210A2000F057FF4FF6E070B1
:104E7000019000200090454B5F4A46210A2000F037
:104E80004CFF4FF6E0700190002000903F4B5B4AD2
:104E900046217D2000F041FF4FF6E0700190002098
:104EA00000903A4B3AA278210A2000F036FF4FF6E4
:104EB000E070019000200090344B36A278217D20D4
:104EC00000F02BFF4FF6E0700190002000902F4B78
:104ED00031A28C210A2000F020FF4FF6E0700190F3
:104EE00000200090294B464A8C217D2000F015FFC0
:104EF0004FF6E070019000200090244B414AA02121
:104F00000A2000F00AFF4FF6E070019000200090A8
:104F10001E4B3D4ABE210A2000F0FFFE4FF6E07016
:104F2000019000200090194B384AD2210A2000F04D
:104F3000F4FE4FF6E070019000200090134B344ACD
:104F4000E6210A2000F0E9FE4FF6E0700190002013
:104F500000900E4B2F4A4FF482710A2000F0DDFEC4
:104F60004FF6E070019000200090084B2A4A4FF461
:104F70008C710A2000F0D1FE07BD00003000002037
:104F80003C050020340000204005002044000020A3
:104F90004B703A004B693A004B643A0074020020AF
:104FA0004804002040040020000059400000002078
:104FB00000408F4008000020100000203C0000202E
:104FC00040000020C8030020DC0300207C050020F6
:104FD00084050020980500209C0500202C0400205A
:104FE000F003002024050020180400204C000020BD
:104FF000AC740008ECB10008F4B10008FCB1000882
:1050000004B200080CB2000814B200081CB2000878
:1050100024B200082CB2000834B20008C11768B1ED
:105020004840401AB0FA80F29040D21CC907C2F53D
:10503000846241EA025202EBD021400570470268C7
:10504000531C036011707047B0B581EA030C0CF07B
:10505000004C40F2FF7515EA11541DBF15EA1357B5
:10506000AC42AF4239E0E41923EA455343F48013DC
:10507000C90241F0004141EA505EC7021100A7FB9E
:10508000020200284FF00000EEFB01204FF000016B
:10509000E3FB072118BF42F00102401800214941FB
:1050A000E3FB0E01A4F580640F0302D252004041DD
:1050B000494154F101046CDD470872F1004250F19E
:1050C000000051EB0451A1F580115CBF41EA0C01D5
:1050D000B0BD4CEA05510020B0BD05EA1357AC4203
:1050E00014BFAF4241E050EA410E1CBF52EA430EEA
:1050F00002E061460020B0BD24423C441BD15FEA7F
:10510000070EF6D0090302BF01460020AEF1140ECF
:10511000B1FA81F7AEEB070401FA07FE0C37C7F1CD
:10512000200100FA07F7C8404EEA000E23EA455373
:1051300043F48013A2E733F00043B3FA83F704BFCC
:10514000B2FA82FE77440B3FE41BB7F1200E2FBF6B
:1051500002FA0EF3BB40C7F1200E22FA0EFE38BF52
:1051600043EA0E03BA40641C82E750EA410E14BFC2
:1051700052EA430E6FF000014FF4001717EB430F94
:105180008ABF194617EB410FB5E74CEA05510020DD
:10519000B0BDD4F10104B4F120070FDAC4F1200747
:1051A000520828BF42F0010210FA07F501FA07F78A
:1051B000E1BF2A43E0403843E1400FE0352C98DC62
:1051C000C7F1200452EA400220FA07F218BF42F069
:1051D000010231FA07F0A1400A43002172F10042B6
:1051E00050F1000051EB0C01B0BD0000C1F30A53B7
:1051F00040F2FE329B1A14DDD3F120034FEAE17234
:1052000008DDC90241EA505141F00040D840801801
:105210005040704703F2E13010B1D24382F00040B9
:1052200070470020704700004FF4001C1CEB410F3A
:1052300094BF1CEB430F09E041EA030C50EA4C0C0D
:1052400052EA0C0C03D28B4208BF8242704714BF53
:1052500099429042704700004FF4001C1CEB410F34
:1052600094BF1CEB430F09E041EA030C50EA4C0CDD
:1052700052EA0C0C03D2994208BF9042704714BF07
:105280008B42824270470000F0B540F2FF7581EA20
:10529000030C0CF0004C15EA11541DBF15EA13570E
:1052A000AC42AF42E5E0BC41C1F31301C3F31303C9
:1052B000801A994143F4801304D2641E400049418E
:1052C00080185941C90241EA5051B1FBF3F603FB82
:1052D0001611A2FB0675D7EBC020A94102D2761E9B
:1052E00080185941C90241EA5051B1FBF3FE03FB5A
:1052F0001E11A2FB0E75D7EBC020A94103D2AEF15F
:10530000010E80185941890241EA9051760546EA1A
:105310008E2EB1FBF3F603FB1611A2FB0675D7EB3D
:105320008020A94102D2761E80185941C90241EA63
:1053300050514EEA060EB1FBF3F603FB1611A2FB29
:105340000675D7EBC020A94102D2761E80185941BC
:10535000C90241EA5051B1FBF3F703FB1711A2FB5D
:105360000735D3EBC020A94167F100070CBF00420D
:1053700047F0010766F3D5274FEA1E31B80814F548
:10538000806412DDBD0775F1004250EB0E5051EB09
:10539000045111F5801F5CBF41EA0C01F0BD4CF0D7
:1053A0007F6141F0E0410020F0BDBD076D0840EA9B
:1053B0000E5041F48011D4F10104B4F120060ADA50
:1053C000C4F120060200E04001FA06F3E140184370
:1053D000B24015430EE0342C13DCC6F1200445EA3C
:1053E00040056D0820FA06F2154321FA06F0A140A7
:1053F0000D43002175F1004250F1000051EB0C010A
:10540000F0BD00205FEA0C01F0BDCFB992185B41FE
:10541000B3FA83F704BFB2FA82F6BF190B3FB7F1B4
:1054200020062FBF02FA06F3BB40C7F1200622FA7E
:1054300006F638BF3343BA401CB1E419641E33E7A3
:105440007F4231F00041B1FA81F404BFB0FA80F636
:10545000A4190B3CB4F120062FBF00FA06F1A140BD
:10546000C4F1200620FA06F638BF3143A0403C1BA9
:105470001AE7AC421ABF05EA1357AF4212E050EAEE
:1054800041061CBF52EA4306BFE750EA41073046D7
:1054900061461CBF41EA0551F0BD52EA430C08BF0A
:1054A000C143F0BD00204FF4001616EB410F98BF2A
:1054B00016EB430F08BF16EB410F24BFC14305E0B5
:1054C00016EB430F0CBF61464CEA0551F0BD0000DE
:1054D0000CB430B583B0044606A802900A460025F5
:1054E0000194009502AB01A9084878441E3000F0F1
:1054F000A7FD01990D7000284EBF04460198041BBA
:10550000204603B030BC5DF80CFB00BF33FBFFFF4F
:1055100070B44FF0004591EA030F40F173806B4087
:10552000841A71EB030603D2001BB14112197341B7
:105530004FF4001C1CEB410F34BF7CEB430442E0F2
:105540000C0DA4EB1356352E4FDC45EAC323DB0AC2
:1055500045EAC121C912B6F120050DDD63FA05F651
:10556000EB4086EA0305124218BF45F00105C0185A
:1055700051F100010CD213E062FA06F5F2405540F9
:10558000F3415A40B340F3405A408018594107D381
:1055900049085FEA30005FEA350528BF45F001059C
:1055A00001F58011420875F1004250F1000041EB15
:1055B00004514E0016F5001F70BC38BF7047002024
:1055C000090D090570471CEB410F10D252EA430642
:1055D0000BD0BCEB410F05D80C0DAB43661E342E2F
:1055E000B6DD02E0AB438018594170BC704770BC17
:1055F0007047000070B44FF0004591EA030F7FF54B
:105600008FAF6B40841A71EB030604D26E40001B0F
:10561000B141121973414FF4001C1CEB410F34BF10
:105620007CEB430682E00C0DA4EB1356362E7BDC9C
:10563000012E45EAC32341DC43EA525312BFD20292
:1056400092025B08240545EAC12141EA5051D2EBA0
:10565000C020994125D407D1B0FA80F610FA06F19E
:1056600062D00020203608E0B1FA81F6B140C6F1E0
:10567000200220FA02F21143B0404FEAF474B4EB76
:10568000465434F001064FEA74040AD8D6F50016E1
:10569000760D04F00044F04061FA06F25040F1400B
:1056A0004840C00A40EA415021F0004128BF5FEA6B
:1056B000500550F1000044EBD12135E0DB0A45EA0A
:1056C000C121C90AB6F120050EDD42EA0242120CE0
:1056D000C5F1200603FA06F6EB4042EA06056D42E4
:1056E000984161F100010DE062FA06F5F240554083
:1056F00063FA06FC82EA0C02F3405A406D42904184
:1057000061EB030111F4801F05D1641E620502D014
:105710006D004041494121F48011430875F1004377
:1057200050F1000041EB045170BC70471CEB410F7D
:1057300015D223F0004352EA43060BD04FEA4C0C3B
:10574000BCEB410F04D80C0D661E342EB7DDEBE721
:10575000801A994150EA410608BF0021E4E708BFDA
:105760001CEB430F28BF6FF00001DDE702885206F3
:1057700001D4002011E0028912F0030FFBD002894E
:105780001206F8D4C9B28181018911F0030FFBD050
:1057900001890906F8D48089C0B27047E0B50120BC
:1057A000019000200090002301224FF40051DFF807
:1057B000A40601F043FA012001900020009000238C
:1057C00001220421DFF8900601F038FA0020019050
:1057D00001200090002301224FF48051DFF874066D
:1057E00001F02CFA0421DFF8700601F00BFB002118
:1057F000DFF8680601F00AFBDFF8600601F056FDED
:1058000000F01CF80020DFF858160880DFF850067A
:105810000088DFF850160880F020DFF84C1608806A
:105820004FF4A070DFF8401648800120DFF83816EA
:1058300008714FF6FF7000F0B7F907BD80B54FF45F
:105840008051DFF8100601F0DFFA44F6206000F026
:1058500018FA4FF48051DFF8FC0501F0D3FA44F652
:10586000206000F00EFA012000F020F94CF25030D8
:1058700000F007FACB2000F019F9392000F02FF9D9
:105880002C2000F02CF9002000F029F9342000F041
:1058900026F9022000F023F9CF2000F007F90020BC
:1058A00000F01DF9C12000F01AF9302000F017F9BE
:1058B000E82000F0FBF8852000F011F9002000F04E
:1058C0000EF9782000F00BF9EA2000F0EFF8002044
:1058D00000F005F9002000F002F9ED2000F0E6F8F4
:1058E000642000F0FCF8032000F0F9F8122000F02A
:1058F000F6F8812000F0F3F8F72000F0D7F8202028
:1059000000F0EDF8C02000F0D1F8232000F0E7F817
:10591000C12000F0CBF8102000F0E1F8C52000F025
:10592000C5F83E2000F0DBF8282000F0D8F8C720AA
:1059300000F0BCF8862000F0D2F8362000F0B6F86F
:10594000482000F0CCF83A2000F0B0F8552000F0E4
:10595000C6F8B12000F0AAF8002000F0C0F8182026
:1059600000F0BDF8B62000F0A1F8082000F0B7F86C
:10597000822000F0B4F8272000F0B1F8F22000F007
:1059800095F8002000F0ABF82A2000F08FF80020F6
:1059900000F0A5F8002000F0A2F8002000F09FF829
:1059A000EF2000F09CF82B2000F080F8002000F0A1
:1059B00096F8002000F093F8012000F090F83F20C6
:1059C00000F08DF8262000F071F8012000F087F833
:1059D000E02000F06BF80F2000F081F8312000F09B
:1059E0007EF82B2000F07BF80C2000F078F80E20D9
:1059F00000F075F8082000F072F84E2000F06FF803
:105A0000F12000F06CF8372000F069F8072000F072
:105A100066F8102000F063F8032000F060F80E2014
:105A200000F05DF8092000F05AF8002000F057F867
:105A3000E12000F03BF8002000F051F80E2000F0CB
:105A40004EF8142000F04BF8032000F048F8112025
:105A500000F045F8072000F042F8312000F03FF850
:105A6000C12000F03CF8482000F039F8082000F090
:105A700036F80F2000F033F80C2000F030F8312019
:105A800000F02DF8362000F02AF80F2000F027F85B
:105A9000112000F00BF8DFF8D40300F0F2F8292011
:105AA00000F004F82C2000F001F801BD10B504004E
:105AB0004FF40051DFF89C0301F0A6F90421DFF850
:105AC000980301F0A1F92100C9B2DFF89003FFF7B4
:105AD0004DFE0421DFF8800301F094F910BD10B5EC
